:020000040800F2
:10000000700900208D010008D52E0008F52D00088C
:1000100000000000000000000000000000000000E0
:10002000000000000000000000000000D92E0008C1
:100030000000000000000000D72E0008DB2E0008A2
:100040009F0100089F0100089F0100089F01000810
:100050009F0100089F0100089F010008D5190008B2
:100060009F0100089F0100089F0100089F010008F0
:100070009F0100089F0100089F0100089F010008E0
:100080009F0100089F0100089F0100080000000078
:100090009F0100089F0100089F0100089F010008C0
:1000A0009F0100089F0100089F0100089F010008B0
:1000B0009F0100089F0100089F0100089F010008A0
:1000C00000F002F800F053F80CA030C808382418EB
:1000D0002D18671EA246AB4654465D46AC4201D180
:1000E00000F045F87E460F3EB6460FCC012633425F
:1000F00000D0FB1A3343A246AB4618476C430000BE
:100100008C430000103A02D378C878C1FAD852075D
:1001100001D330C830C101D504680C6070470000BD
:100120000023002400250026103A01D378C1FBD813
:10013000520700D330C100D50B60704710B5662957
:1001400002D104F0D7F810BD642902D100F00CF9F7
:1001500010BD002010BD1FB500F0A4FF040000205A
:10016000002103F0ABFFE0601FBD10B510BD01F032
:100170004FFB1146FFF7EFFF03F0C6FA01F067FBF4
:1001800003B4FFF7F2FF03BC01F0C2FB074880474E
:1001900007480047FEE7FEE7FEE7FEE7FEE7FEE76B
:1001A00004480549054A064B70470000E32E000845
:1001B000C1000008700300207009002070050020B5
:1001C00070050020FEB5044610460D46184373D056
:1001D000A6468C460020A41A01469D4167D3664678
:1001E000002701243D46B61A9D4102D313463A46E4
:1001F0002124654676462F04360C3E432D0CB61A54
:100200009D4104D3150C1B042B4312041034654686
:1002100076462F06360A3E432D0AB61A9D4104D370
:10022000150E1B022B4312020834654676462F0733
:1002300036093E432D09B61A9D4104D3150F1B0103
:100240002B431201241D65467646AF07B6083E4390
:10025000AD08B61A9D4104D3950F9B002B43920025
:10026000A41C65467646EF0776083E436D08B61A2D
:100270009D411AD392185B41641C16E00018764623
:1002800065464941B71A9D410191009009D36046E6
:10029000B11A98418E468446009801990025401C69
:1002A0006941DD0752082A435B08641EE6D57246A1
:1002B000634603B0F0BDFFE72046284307D0002087
:1002C000C0430146C046C04622462B46F1E7002007
:1002D0000146F7E70FB41CB5074B06AA7B446946F5
:1002E0000090059800F0B1FE0020694600F0C0FEC5
:1002F0001CBC08BC04B01847910D0000F8B50E46B0
:100300000446002020622046E1688847002829D062
:10031000252802D06268A16820E0E1682046002715
:10032000884705001ED028464138192802D80127E1
:10033000FF0220353246204627602946FFF7FEFEA1
:10034000002808D0012804D0F61DF608F60008366B
:10035000D9E7361DD7E762682846A1689047206A2A
:10036000401CCFE7206AF8BDF7B500257529106855
:10037000009914A611D0C046C046002802DA4042B7
:1003800011A608E0009909688A0701D50FA602E0C6
:10039000490704D50EA6012501E0C046C046009FCE
:1003A0000024243704E000F068FE30313955641C25
:1003B0000028F8D12B4632462146009800F0DDFB9C
:1003C000FEBD0000000000002D0000002B0000001A
:1003D0002000000030B5441C03E00178401C0029D7
:1003E0000DD08107F9D10B4BDD0104C8D11A91431F
:1003F0002940FAD0001B0A0603D0C01E30BD001BE6
:1004000030BD0A0401D0801E30BD0902FCD0401E60
:1004100030BD00000101010101E004C0091F0429F1
:10042000FBD28B0701D50280801CC90700D0027067
:10043000704700290BD0C30702D00270401C491E30
:10044000022904D3830702D50280801C891EE3E7BA
:100450000022EEE70022DFE7002203098B4273D37C
:10046000030A8B4258D3030B8B423CD3030C8B42C1
:1004700021D312E003460B437FD4002243088B4272
:1004800074D303098B425FD3030A8B4244D3030B1B
:100490008B4228D3030C8B420DD30902FF2212BAE0
:1004A000030C8B4202D31212090265D0030B8B425C
:1004B00019D300E0090AC30B8B4201D3CB03C01A46
:1004C0005241830B8B4201D38B03C01A5241430B21
:1004D0008B4201D34B03C01A5241030B8B4201D311
:1004E0000B03C01A5241C30A8B4201D3CB02C01A7C
:1004F0005241830A8B4201D38B02C01A5241430AF4
:100500008B4201D34B02C01A5241030A8B4201D3E2
:100510000B02C01A5241CDD2C3098B4201D3CB0189
:10052000C01A524183098B4201D38B01C01A524138
:1005300043098B4201D34B01C01A524103098B423C
:1005400001D30B01C01A5241C3088B4201D3CB0027
:10055000C01A524183088B4201D38B00C01A52410A
:1005600043088B4201D34B00C01A5241411A00D2BA
:1005700001465241104670475DE0CA0F00D0494223
:10058000031000D3404253409C46002203098B4293
:100590002DD3030A8B4212D38901FC2212BA030A1B
:1005A0008B420CD3890192118B4208D3890192119D
:1005B0008B4204D389013AD0921100E08909C30922
:1005C0008B4201D3CB01C01A524183098B4201D324
:1005D0008B01C01A524143098B4201D34B01C01A0F
:1005E000524103098B4201D30B01C01A5241C30887
:1005F0008B4201D3CB00C01A524183088B4201D3F6
:100600008B00C01A5241D9D243088B4201D34B0010
:10061000C01A5241411A00D2014652411046634667
:100620005B1001D34042002B00D54942704763461E
:100630005B1000D3404201B50449002802DC491C8C
:10064000084000E00846C046C04602BDFFFFFF7FED
:1006500070477047704700000246C80FC0078143CB
:100660004B0030B54B405B009B0D20D01923DB06BF
:10067000C91801231B05994220DB0324A407042584
:100680001346AB400BD3002B04D1EB0613409B0069
:10069000E34204D401246407002312195941FF23C3
:1006A0001B0599420BD2C9000143500F09E0CB0250
:1006B00004D501430803024305D0054830BDFF219E
:1006C000C905084330BD084607210905884330BDE8
:1006D0000000C07FF0B58B4C0F09254689B0BD43A3
:1006E0007BD01D092646AE43FAD00E465E40274019
:1006F000F60F3E43254071D024012142FBD0FF2458
:10070000AD19A4042D1B039501252D05DB02DB0A81
:10071000C9022B43C90A29431E010901040F130F03
:10072000050121431701880B820391432D098C4653
:10073000A90B1E438A039543B30B9A0396433F09C3
:10074000BA0B9403A74302962E467E430497B646FF
:100750004E19D7190C460196544305977E43371B13
:100760007646BF1B3601B646BE0B36190096764656
:10077000BC043719009C01D3641C00946400002F52
:1007800001D001263443029E049F754366467E4392
:100790000496760034196E0034190094029C019E70
:1007A0001C196643751BAE46069465464519059CA3
:1007B00005956C43594375460891691A0191049E49
:1007C00001465143A41B0491611A009C0791E10664
:1007D00005D061090122114302E072E06EE0610977
:1007E000089D00272C0A2D066918049D7C412A0AC1
:1007F0002D066918019D6241AC0DAD026D18544182
:10080000079A910D920255196141029A6446584324
:100810005443069B059A5A43121A131B9A0E9B01C6
:100820005B187A41010B0005C3185141220A2006CA
:1008300044195A419A4200D2491C01204002814287
:1008400003D315230226F64302E014230326F643BE
:100850002020C51AA9401746AF40DA400A43204677
:100860000399D8400914731819055118039A38438D
:10087000D2075140AC4009D00122944006D3002257
:10088000401C5141002C01D1400840001E4A9342B7
:1008900012D3012203989206904207DB05204007FD
:1008A00009181A480143C012414004E003204007E0
:1008B0000818C10FC907002009B0F0BD0020F107DA
:1008C000FAE705180C464C4111486D42A04115D37A
:1008D00094181A465A410E48644290410ED30120A2
:1008E0004A004005824209D35A00824206D3594049
:1008F000C90F084AC90700201143DDE70020064957
:10090000DAE700000000FF07FE070000FFFFFF7F9F
:100910000000E0FF0000F07F0000F87F0121C90522
:100920000123411842001B06D3185B0E0AD0C110E8
:100930000722D206891840075242D14201D55200FF
:1009400089187047090208D50146002A03D0C10F53
:10095000C9070020704710467047420202D00020AD
:1009600002497047072109050143F4E70000F87FB9
:10097000F0B5FF252D04C609C209FF2704462E4005
:100980000137CB093E4348402A402B400746002A06
:100990006BD0002B69D0AA4267D0AB4265D000284B
:1009A00000DA32460125ED0529432C4309022002D5
:1009B000090AD21A4B0C7F24E31A434C000A7C44E8
:1009C000E35C7D242404121914145B00A2188842ED
:1009D00001D3521C00E0400049420C465C43241104
:1009E0005C43DB016415E318040A5C43C502200D77
:1009F0000C4644436419250A5D432303EC0C0D4661
:100A0000654300030019EB184C42A34201D35B1865
:100A1000401CD4052018002B07D05B00C91804D354
:100A2000401C002901D1400840003F2189048A422E
:100A300009D3002A08DC1106090F04D00321490755
:100A40004018C00FC007F0BD0122410012068918EE
:100A50007F2252069142F6D205214907C84201D5AC
:100A60009010F0BDFF20C005F0BD002F00DA324627
:100A70001648AA4207D2AB4205D21902090E17D076
:100A8000F80FC007F0BDFF2563002D06AB42F9D873
:100A90004900A942F6D8AB4201D1A942F2D0A942FD
:100AA00001D1002101E061004908D0050843F0BDF3
:100AB0001102090EFBD0FF200243D005F0BD0A460B
:100AC0000146104654E70000423900000000C07F94
:100AD00010B501469E240002CA15A307002A02D0C1
:100AE0001843002A04DBA21A002A0CDDD04010BDF6
:100AF0001206120E01D140004008A21A03D4D040C1
:100B000040420028F3DDFF2248001206904201D93E
:100B1000002010BDC817C043584010BD1F22030C51
:100B200002D10F2200041CD0030E01D10002083AAA
:100B3000030F01D10001121F830F01D18000921E0B
:100B4000002801DB4000521ED20551180212511834
:100B50001922904004D3491C002801D149084900BA
:100B600008467047C10FC90700D0404201229207D2
:100B70001143D3E701218907D0E7FFB504460D46AD
:100B800081B0243000902168880604D51022E069E5
:100B90009143216000E00120A84201DD471B00E0F5
:100BA00000270498A1697A191018081AA061207802
:100BB000C00602D42046C046C046002608E003987E
:100BC0006268A168805D9047206A401C761C2062A4
:100BD00004988642F3DB2078C0060AD52046C0463A
:100BE000C04606E06268A16830209047206A401C39
:100BF000206238467F1E0028F4DC07E00098626817
:100C0000A168405D9047206A401C206228466D1E06
:100C10000028F3DC2046C046C0462078000602D5F6
:100C2000022005B0F0BD0120FBE70000FFB50C4637
:100C30001E468FB003CA089009914F007D0D00D168
:100C40006D1E002108460020C0460321099A89052F
:100C50000840002A03DA8200801840080840800D0E
:100C600001280A9002DD0020C0430A90089807433B
:100C70000DD0F048F0492818484307141898002868
:100C80001DD07542291E1DDD0A9842421BE01898AE
:100C9000012802D00020302104E00020F24305E0CA
:100CA0002154401CB042FBDB30460022189B00213F
:100CB00021540F998B600A60486013B0F0BDBD1BD2
:100CC0006D1CDFE70A9A002900DA69420BA800F0E0
:100CD0006FFA0BAB07CB03AB07C30899099800F079
:100CE000D3FA6B4607C30146D4480918002D00917A
:100CF0000BDDD24903980A9A49424018002303A900
:100D00000390684600F030FD08E003990A9A00233A
:100D1000081803A90390684600F0D0FC6B4607C38F
:100D20000004000C03D00020C043410800E010463E
:100D3000189A002A03D00022009215461EE0751E64
:100D400005D400F0B3F9303262556D1EF9D5012299
:100D50000843079602D000227F1C04E02078302848
:100D600001D100227F1E002A069787D01EE0112D98
:100D700007DA00F09BF9303262556D1C02460A43D7
:100D8000F5D1084303D00098002819D00EE00021C7
:100D9000681E05E0235C625C63542254401E491CBB
:100DA0008142F7DBA81B401E07950690079A189909
:100DB0000020A0540F98079B069A81600CC07CE726
:100DC00011260020189059E7D21DF0B50D460446B3
:100DD000D10893B0C90003C90C900D9103F058F9E4
:100DE00002460D98C00F01D02D2007E02068810732
:100DF00001D52B2002E04007C00F4001032A0F90CD
:100E000001D0072A05DB03462946204600F08CF96D
:100E10000EE12078800601D5E76900E00627284624
:100E2000652D04D0662814D0672D69D12DE00020EF
:100E3000112F009001DB112300E07B1C0CAA03A9F9
:100E400010A8FFF7F3FE1199002610987D1C0E9153
:100E500042E001203B460CAAC0070B900120009005
:100E600003A910A8FFF7E2FE119D12981099002621
:100E700000280E9501D1781C0D18781B02D446422B
:100E80007D1C761EE81B00903AE0012F00DA012756
:100E90000020112F009001DD112300E03B460CAA39
:100EA00003A910A8FFF7C2FE11993D46109800262D
:100EB0000E91217809070BD40E99A94200DA0D464C
:100EC00003A9012D04DD4A19203AD27F302A06D029
:100ED000B84201DA011D04DA012100910FE06D1E14
:100EE000EFE7002802DC86192D1A03E0411CA94215
:100EF00000DD0D46801B401C00900120C0070B90B8
:100F00002078000705D40098A84202DB0020C043E7
:100F1000009069460020C8720B98012102AF033788
:100F2000C907884225D0022010902B2011900B98E1
:100F300000280BDA40420B902D20119006E00B9810
:100F400000F09BF830317F1E0B9039701099481ECD
:100F500000291090F3DC0B980028F0D111987F1E27
:100F600038702088000501D5452000E065207F1EEF
:100F7000387001A8C01BC01D0B900F98002800D02E
:100F8000012041190098C01709180B980818A16989
:100F9000081A401EA0612078C00602D42046C04630
:100FA000C0460F98002805D06268A1689047206A63
:100FB000401C20622078C00625D52046C046C04689
:100FC00021E0002E07DB0E98B04204DD03A8626822
:100FD000805DA16802E06268A16830209047206AC5
:100FE000761C401C20620098401E002800900AD108
:100FF00000F058F8C06862680168405CA1689047DA
:10100000206A401C206228466D1E0028D9DC07E0BB
:1010100062683878A1687F1C9047206A401C206273
:101020000B99481E00290B90F2DC2046C046C046B2
:10103000032042E601FCFFFF104D0000E1DFFFFF4F
:1010400001694A1C02610878704700B58FB00291AF
:1010500000210591054901937944039111460490BB
:101060006846FFF74BF90FB000BD0000E5FFFFFF3A
:101070000A681070521C0A60704701468008081AFE
:1010800002091018020A1018020C1018C008820079
:1010900012185200891A01E0401C0A390A29FBD2B1
:1010A0007047000000487047500000200B4670B5A4
:1010B000024689078008084319469D08141AA94169
:1010C00025090807054308092C194841250A010686
:1010D0000D43010A2C194141200C0D0428430D0C2D
:1010E00000194D41002140194D41C00869070843CE
:1010F000E908840F8D002543840024184D412419EC
:101100006D41121BAB4107E00925ED432C1152192B
:1011100063410024401C61411C460A250026551BE2
:10112000B441F1D270BD0000F8B51F46044601235A
:101130000068DB02032601461840072A05DB002869
:1011400001D017A506E017A504E0002801D016A5D8
:1011500000E016A5102081432160A069C01E002F69
:10116000A06101D0401EA0612046C046C046002FAD
:1011700009D038466268A1689047206A401C206206
:10118000C01C206206E0206AFAE762682878A1683D
:101190006D1C9047761EF8D22046C046C046F8BD6A
:1011A0004E414E006E616E00494E4600696E66000B
:1011B000F7B516468AB0334878446C4603467C330C
:1011C000C06F5A689B680DC42E487844763003ACD3
:1011D0000DC80DC43720C001081837211B30FFF798
:1011E00049F905460C46803D1B3C02D5644201206E
:1011F00000E000200027099010E0E0070CD00C2050
:1012000020497843794432464C39411868460123D5
:1012100000F054FA6B4607C364107F1C002CECD11D
:10122000184F7F442E3F16E0E80712D02001C01966
:101230000EC80691089307920068F04201D19819F0
:1012400008903246012306A903A800F037FA03AB41
:1012500007C36D10641C002DE6D10998002806D044
:1012600032466946012303A800F07EFA05E0012317
:101270003246694603A800F021FA0A9B07C30DB065
:10128000F0BD000088310000034640000A4610B55A
:10129000400D0BD00121C9070F24A40200191C0323
:1012A00064082143540D2143D20207E000210120AC
:1012B000F2E7D40F490021435200401E0029F8DA1A
:1012C000DB0FDB07184310BDFFB50D46144685B094
:1012D0004868516802F0C3FE00910190A868A168B7
:1012E00002F0BDFE02910390A868616802F0B7FEAB
:1012F000029A12188242029201D2012000E00020DC
:10130000019A0B18D2180028019202D08A4202D901
:1013100003E08A4201D2012000E000200099081871
:1013200000906868A16802F09AFE029A1218824240
:10133000029201D2012000E00020019A0B18D2187D
:101340000028019202D08A4202D903E08A4201D2E7
:10135000012000E00020009908180090286821680A
:1013600040004900400849084018FA49471814E06D
:1013700001994000C90F084300900198029940006C
:10138000C90F08430190029803994000C90F084310
:101390000290039840007F1E039000980028E7DA2F
:1013A0000898002801D0EC4E00E00026B74201DA90
:1013B000012000E00020002804902AD0F71BF80646
:1013C000C00E15D0029B2021091A039A8B401A43A4
:1013D0000392029A019BC2408B401A430292019AE7
:1013E000009BC2408B4000991A430192C14000917A
:1013F0007B110DD06F460320C11A03D50021820056
:10140000B95003E08A008100BA587A50401EF3D5E3
:10141000374603980299002800D00120014308981C
:101420000291002808460CD0002800D00120019924
:10143000019A490508430121D20AC902D202019248
:1014400000E001210E9B0122D207012B02D0002BCC
:1014500003D013E0002807D120E0904204D8904246
:101460000CD1019B0B4209D0019B5918019105D168
:101470000099491C009101D17F1C009200280DD0D9
:10148000102108460020C0460498002806D00F9876
:10149000002803D0082108460020C046286821689B
:1014A000019B009A4840C10F0598C90739430EC0F7
:1014B00009B0F0BDFFB587B0099A0898089953683C
:1014C00092684068896896460022039317469446BE
:1014D000089A12685300099A5B0812685200520871
:1014E0009A1A9E4BD4180A9A002A01D0352200E09D
:1014F000402206920022012315460492DB07059341
:1015000024E0002D05D175460346039E4D1BB341D3
:1015100009D375466646039B491B049D9841059B6C
:101520007519AC465F4163463B4308D0059B049E5A
:10153000DD0776082E435B080496059301E0521EF2
:10154000641EC50FED0749184041521C069B9A4284
:10155000D7DB002D04D17546039A6B1A824101D264
:1015600003200CE0039A0B466B404240134303D028
:10157000014303D0012002E0022000E00020614688
:1015800001910021009702910A99002905D0614636
:1015900040020143704B019102E08007002302905A
:1015A0009C4201DA012000E0002007003AD01A1B1B
:1015B000D006C00E15D0029D2021019C091AC540FD
:1015C0008C402543029C8C4000D001242543019C83
:1015D0000295009DC4408D4000992C430194C14068
:1015E000009154111DD06D460221002202290CD118
:1015F0000320001B07E0002804DB8600AE59002E04
:1016000000D00122401C0328F5DB081B02D588000E
:101610002A5004E08000285810438A00A850491E30
:10162000E3D51C460A98002802980CD0002800D068
:1016300001200199019A490508430121D20AC902F2
:10164000D202019200E00121109B0122D207012B5E
:1016500002D0002B03D013E0002807D11FE09042F6
:1016600004D890420CD1019B0B4209D0019B591820
:10167000019105D10099491C009101D1641C00928F
:1016800000280CD0102108460020C046002F06D0AC
:101690001198002803D0082108460020C046089869
:1016A0000999019A009B006809684840C10F079892
:1016B000C907214382600AC00BB0F0BD00B585B0F8
:1016C000019300920A460146002302A8FFF7FCFDA1
:1016D00002A807C805B000BDFFB50A461F4685B081
:1016E0000799019301230091014602A8FFF7ECFD41
:1016F00002990398049ECA0F4900D20700920F2254
:10170000490892028C1A0021002800DB0C46450093
:1017100013486D08844214D3079A002A04DA441E41
:101720000026104DF64302E004460D460E461021F9
:1017300008460020C046002F03D0042108460020A0
:10174000C0462005E90A0843009908436905F20AE2
:101750001143ADE602C0FFFF013C0000FF3F000067
:10176000FF070000FFFFFF7F00B585B001930092E7
:101770000A460146002302A8FFF79CFE02A807C8FC
:10178000A8E7FFB50A461F4685B0079901930123D4
:101790000091014602A8FFF78DFE02990398049E6E
:1017A000CA0F4900D20700920F22490892028C1AF0
:1017B0000021002800DB0C46450011486D088442DA
:1017C00014D3079A002A04DA441E00260D4DF6436E
:1017D00002E004460D460E46102108460020C04691
:1017E000002F03D0042108460020C0462005E90A46
:1017F0000843009908436905F20A114358E60000BE
:10180000FF070000FFFFFF7F004870473000002007
:101810007546FFF7F9FFAE46050069465346C00816
:10182000C000854618B020B5FEF7BAFC60BCB646CD
:1018300000260027C0C5C0C5C0C5C0C5C0C5C0C53D
:10184000C0C5C0C5403D490849008D46704710B528
:101850000446C046C0462046FEF792FC10BD00007C
:1018600082078B079A423FD170B5920F0AD00324AA
:1018700002780B78401C491C002A33D09A4231D19F
:101880002042F5D1214EF40104C808C9951B9543A7
:10189000254018D19A420FD104C808C9951B954319
:1018A000254010D19A4207D104C808C9951B954319
:1018B000254008D19A42E7D012BA1BBA01209A42B9
:1018C00000D2404270BD12BA1BBA2DBA18241000C3
:1018D000E0401900E140401A05D12E00E64002D157
:1018E000083CF4D1D01A70BD02780B78401C491C1A
:1018F000002A09D09A4207D102780B78401C491C73
:10190000002A01D09A42EFD0D01A7047010101019C
:1019100001491820ABBEFEE7260002007047000018
:1019200070B582B004460068816803220A40012A2B
:1019300002D10168C90747D18168254A11420AD0FE
:10194000606D102101436165A06D01252843A065EC
:10195000284602B070BD816801220A438260614856
:101960000068614902F080FA01900198002817D0C0
:101970000198401E01900198002811D00198401E46
:101980000190019800280BD00198401E0190019809
:10199000002805D00198401E019001980028E7D149
:1019A00000F07CFB064620680068002500E0006827
:1019B000C007CDD100F072FB811B20680B29F6D344
:1019C0000168C907F3D1BBE70025284602B070BD06
:1019D0001700008080B50120000200F083FA80BD6E
:1019E00070B582B05022825C012A02D1022002B07E
:1019F00070BD04465034026893685B0711D40E68CA
:101A0000496836483040A94D354B994212D1916A08
:101A100081439162700320D4B00325D4F0032FD505
:101A200029E0416D20220A434265012000212170F6
:101A300002B070BD916A01439162700325D4B00376
:101A400004D501208005296801432960F00317D5DA
:101A5000012001062868084311E00120C00529681B
:101A600081432960B003D9D50120800529688143CD
:101A70002960F00304D50120010628688843286006
:101A800000200021217002B070BD0120C00529682E
:101A90000143296013480068134902F0E5F90A215F
:101AA0004143019101980028C9D00198401E01903E
:101AB00001980028C3D00198401E01900198002889
:101AC000BDD00198401E019001980028B7D0019820
:101AD000401E019001980028E7D1B0E7FFFF070002
:101AE000011000002C00002040420F000068006C34
:101AF00070470000F0B583B0012500283ED00446B1
:101B000006465036406D002803D0606DC00609D5EA
:101B10002EE000203070A065204600F0CBF8606D0C
:101B2000C00625D420688168490721D48121490055
:101B3000626D8A43911C61658168032211405B4B91
:101B4000012902D10168C9072ED161680125EE077C
:101B5000B14205D0AD07A94202D09507A94210D1E4
:101B6000920705699543056102690A43026113E022
:101B700000203070606D102101436165284603B07C
:101B8000F0BD0269AA4302610F2292041D689543C9
:101B90001D601A680A431A60C16818229143C16027
:101BA000A168C2680A43C2602246203201214D0664
:101BB0001E68AE431E60656B6D061E682E431E6078
:101BC0008368DB0003D40B0785681D4385600291A1
:101BD000C368374D1D40C56023699B1E5D425D4152
:101BE000AB00E6681E4315786B033343266B1E4338
:101BF000137B5B003343A669E769B6031E43FB030F
:101C00003343C6681E43C660676A06460C36FF2328
:101C10000193C2339F4216D151780129029F1BD0F4
:101C20000269E16B012929D1019989008A43026186
:101C3000234640330ECB0A431A4301691143016125
:101C400002693A431EE03368A16A1943394331609F
:101C500051780129029FE3D1002D07D0616D202228
:101C60000A436265264658363A4600E03A0431682F
:101C7000114331600269E16B0129D5D0D10702D04F
:101C80000269BA4302614169072291434161A16B34
:101C900042690A4342610025A565606D384302210F
:101CA00088436065284603B0F0BDC0460827014060
:101CB0001902FEFF10B586B000210591049100685D
:101CC0000E4A904201D006B010BD012042020C4BDA
:101CD0009C6814439C601A6802431A601A680240A8
:101CE0000092039103200290132001900520000729
:101CF000009901A900F002F906B010BD00240140CE
:101D00002C100240F0B581B00D460446014650311A
:101D10004069082802D10091082705E02068C068C2
:101D2000C00767D100910C2700F0B8F9064621687A
:101D3000086838421ED001204202636D1343636578
:101D4000CA681205920F67D1224620321278002A03
:101D500062D10A6812075FD58A68520753D42246B7
:101D600054324B680C25AB434B60FF25023513689A
:101D7000AB434FE0681C39D0002D1BD108683842B6
:101D800021D008683842D6D1086838421BD008688C
:101D90003842D0D10868384215D008683842CAD1D4
:101DA000086838420FD008683842E7D0C3E70868AF
:101DB0003842C0D100F072F9801B2168A842F6D9E0
:101DC00008683842F3D1002000990870606D042142
:101DD00001436165032001B0F0BD08683842AAD113
:101DE00008683842A7D108683842A4D10868384248
:101DF000F3D0A0E700200870606D202101436165E9
:101E0000012001B0F0BD626D2023134363652246BB
:101E10005832A36D03431360A2690020002A01D049
:101E200001B0F0BD0C220A6001B0F0BD70B50446EF
:101E300000688168022049070FD45021615C0129A4
:101E40000BD02546503501262E70E069012805D0BB
:101E50002046FFF765FD002800D070BD606D084981
:101E600001403002081860650020A06521681C222E
:101E70000A6028708A68042313438B6070BDC046D3
:101E8000FEF0FFFFB0B5044600F008F90546601CFF
:101E900002D0A2480078041900F000F9401BA042CB
:101EA000FAD3B0BD10B5044600F0F8F80B494A6803
:101EB000821AFF232E339A420FD348600120020278
:101EC00094420AD1064A1378012B05D100201070E4
:101ED0000868401C086010BD107010BD9000002004
:101EE0002800002080B504490A68024202D0086038
:101EF000FFF7D8FF80BDC04614040140F0B58AB09A
:101F0000019009910A68002A00D1B7E05C48019B62
:101F1000834201D0062000E005200B2109075B1851
:101F20000A21CB410093052B00D3009000263546B3
:101F300034460BE011433960641C0998026810466E
:101F4000E040B61C2D1D002800D197E00121084675
:101F5000A0400240F0D00294049205910895032518
:101F60002946B140CA43099934464E6833462B404E
:101F70005F1E012F07920696039410D80F46019911
:101F80008D681540FF68A7402F438F60F506ED0F61
:101F9000029CA5404F6887432F434F6008E0032B06
:101FA000029C05D12B46019F089D049A039E22E0C6
:101FB000019FF8680799084009998D68039EB5400C
:101FC0000543FD60022B089D049A14D11C20284073
:101FD0000F218140E3089B00FB1806931D6A8D4387
:101FE000099B196981402943089D06980162586838
:101FF000032306900340B34038680799084018430C
:10200000386006988003800F059B95D04A49086880
:10201000184308600C2028400F21814003232546E7
:102020009D43194FEB598B43009981401943E95166
:10203000144FB96809984068C30201D5114300E004
:102040009143089DB960F96883020AD51143F9608C
:10205000796883030AD4914379603968C0030BD54A
:1020600068E79143F96079688303F4D51143796097
:102070003968C00300D55DE791435CE70AB0F0BD65
:10208000001C00500004014008000140002A02D05A
:1020900018228150704728228150704705480068F7
:1020A0007047C0461D48007802490A681018086049
:1020B0007047C0466C03002080B508480168402284
:1020C0000A430260032000F00BF8002801D0012031
:1020D00080BD00F027F8002080BDC04600200240EF
:1020E00070B504467D20C0000C4E317801F0BCFE76
:1020F00001460B48006801F0B7FE00F095FD012590
:10210000032C08D8002806D10025E84321462A469A
:1021100000F020F87460284670BDC0462000002002
:102120002C000020044801680122114301601107BE
:1021300042680A434260704734100240002805D4C8
:102140001F21084001218140014801607047C046BD
:1021500000E100E0002805D40322034693430A4A25
:102160009A1803E00C220240064BD2188007C00EDA
:102170008901C9B28140FF23834010689843084316
:102180001060704714ED00E000E400E0F0B589B0A5
:10219000066801252F02EA0211462031884B0E42C3
:1021A0007DD0059208902907143B186808400490D8
:1021B00002D118680843186002930391814C20688B
:1021C000384211D1206838432060FFF767FF064688
:1021D0002068384208D1FFF761FF801B6428F7D9D7
:1021E0000325284609B0F0BD0326340574484C3851
:1021F000069001682140089B5868024622400096DC
:10220000360491420AD19A68224091423246069E93
:102210000DD001461140914206D008E00146314000
:10222000B1423246069E02D131688903D9D4019465
:10223000634B59680792114021D0079A10408142A0
:1022400003D00898007880060AD408988068079A16
:102250001040814213D008980068059908420ED0BA
:102260005868E9045A680A435A605A688A435A60AF
:102270000146079A91435960384200D08DE0089892
:10228000066805990E425AD1B106019C6ED4049994
:10229000002904D1029C2168039A91432160F1072F
:1022A0000DD1B10713D4710719D4310720D43E42A0
:1022B00027D171062ED40025310692D535E0196854
:1022C00003229143C2680A431A60B107EBD519682B
:1022D0000C22914302690A431A607107E5D5032174
:1022E00089021A688A434169114319603107DED5B2
:1022F000032109031A688A438169114319603E4228
:10230000D7D0032109041A688A43C16911431960AF
:102310007106D0D5012189061A688A43416A1143A2
:1023200019600025310600D45BE703218A0419688F
:102330009143006A08431860284609B0F0BD8268DE
:102340001146079C2140A1420AD101980240032373
:102350001B05069D2C689C43194B089814432C6060
:102360005A680A435A60B106019C90D542681146EA
:10237000079D2940A94209D1224003231B05069D40
:102380002C689C430E4B089814432C605A680A43EF
:102390005A600499002982D17CE7FFF77FFE054649
:1023A000904C074B5868800500D568E7FFF776FE2C
:1023B000401BA042F5D9009D284609B0F0BDC0469B
:1023C0004C10024000700040F0B583B0029000282D
:1023D00046D00E4682480068012101910840B04273
:1023E00016D27F4908680125A843304308607D4C18
:1023F000FFF754FE07467A4800682840B04207D0ED
:10240000FFF74CFEC01BA042F5D9032003B0F0BD7E
:10241000029800688107814D06D52968F022914312
:10242000029A92680A432A60C0071CD16C4800686F
:1024300001273840B04225D969490868B843086087
:10244000684CFFF72BFE054665480068C00719D0A9
:10245000FFF724FE401BA042F6D9032003B0F0BDD5
:10246000012003B0F0BD0298426829460C39012AC8
:1024700032D0032A35D0022A39D10968890301985C
:1024800033D538E0029800684107644C07D507212E
:10249000090222688A430299C96811432160000732
:1024A00008D50720C0022168814302980069C00056
:1024B0000843206021680807820F73487A44127924
:1024C0005200974401617F68380421460839096841
:1024D0000904490F884075E009684907019804D547
:1024E00009E009688901019805D403B0F0BD0968C5
:1024F00089050198F9D5296803200190814311438A
:102500002960FFF7CBFD074602984068354C032849
:1025100011D002281DD0012829D128680C210140A2
:10252000042900D182E7FFF7B9FDC01BA042F4D90E
:10253000019803B0F0BD28680C2101400C2900D19E
:1025400074E7FFF7ABFDC01BA042F4D9019803B0BC
:10255000F0BD28680C210140082900D166E7FFF78B
:102560009DFDC01BA042F4D9019803B0F0BD2868BE
:102570000007800F00D159E7FFF790FDC01BA04274
:10258000F5D9019803B0F0BD20460C380068C006AC
:1025900012D53F4816E08A02120F3C4B9A5C0902A2
:1025A000890F491C2368DB0309D420460C380068D6
:1025B000C00603D4374802E0364803E034485043AD
:1025C00001F052FC21680906090F074A515CC84016
:1025D0001149086005480068FFF782FD03B0F0BDAF
:1025E0000020024088130000D84300082400002087
:1025F00009480068094909684905490F084A515CBA
:10260000C840704704480068044909688904490FB4
:10261000034A515CC84070472C0000200C10024057
:10262000E843000810B5834AD1680807830F1648AD
:102630007B441B795B009F440108070D01200004C7
:1026400051680904490F884010BD1068C00613D5B1
:102650000F4810BD8B021B0F0C4CE35C0902890F65
:10266000491CD468E40303D41068C00606D40948A2
:10267000584301F0F9FB10BD064810BD044858430B
:1026800001F0F2FB10BDC04600127A00F0430008D2
:1026900000093D000024F400F0B589B0002856D0B0
:1026A000644EF1680C220A4006920121059109044A
:1026B000F76804910F4007900078C00710D0069883
:1026C000082806D006980C2800D0D5E0002F00D1AD
:1026D000D2E03068800303D507984068002851D0C5
:1026E00007980078800735D407980078C0064CD446
:1026F00007980078000766D407990878400700D546
:102700009AE00878800600D521E10798846A002CB9
:102710001AD006980C2800D06DE1012C32D0F06858
:10272000049A0240079BD96A8A422BD10F2189045F
:1027300001401A6B914225D1032189050840596B4C
:102740008842059800D059E2002009B0F0BD012070
:1027500009B0F0BD079BD868810604D531682022F6
:102760001143316090430699042906D006990C293B
:1027700000D0ACE0002F00D0A9E03168490739D57E
:10278000002837D1059809B0F0BD0698002800D17F
:10279000B3E030680799C969002900D107E1012138
:1027A0000A02104330604C02FFF778FC054630689F
:1027B000204200D00EE1FFF771FC401B0228F6D941
:1027C000032009B0F0BD306D07994969002900D197
:1027D000DCE0012108433065FFF760FC0546306D01
:1027E000800789D4FFF75AFC401B0228F7D9032041
:1027F00009B0F0BD1F21090272688A4319690902F4
:102800001143716031680922914301433160F168DD
:102810000807820FFA4852007A449288520097447F
:1028200003002001DE01260170680004410F0498B6
:102830008840D4E10010024001221107B06B08402B
:10284000029002D1B06B0843B0630191039214026D
:10285000F24F3868C00525D4386820433860FFF748
:102860001DFC0546386820421CD1FFF717FC411BB0
:1028700003206429F6D9C1E10798406805994C0402
:102880000499884209D005210904884200D0C9E092
:102890000598800431680143316030680499084329
:1028A0003060CFE007988068002800D122E1052140
:1028B00009028842039A00D133E1A04200D134E1F9
:1028C000306DA04330659102306D88432FE131684F
:1028D000002800D1DDE00922914301433160FFF778
:1028E000DDFB05463068400700D5F9E0FFF7D6FB71
:1028F000411B03200229F5D980E130688005079B40
:1029000003D5D869002800D13CE70720400371684F
:102910008143586A01437160FF21090672688A4346
:10292000196A090689187160400B04998140F068A2
:102930000006000FB64A105CC140B6480160B648B8
:102940000068FFF7CDFB002800D057E1D0E6B06863
:1029500007998969002900D1ACE001210843B060E2
:10296000706B084370634803AE490A6802430A600B
:10297000FFF794FB0546B068800700D5C5E6FFF772
:102980008DFB411B03200229F5D937E10121884342
:102990003065FFF783FB0546306D800700D4ABE65A
:1029A000FFF77CFB411B03200229F5D926E1012119
:1029B0000A02904330604C02FFF770FB0546306816
:1029C000204200D194E6FFF769FB411B0320022956
:1029D000F5D913E10720400371688143079A506AD3
:1029E00008437060FF20000671688143106A00068A
:1029F000401870607CE601273806316881433160F9
:102A0000FFF74CFB0546022C00D0AAE07F06306899
:102A1000384200D1C1E0FFF741FB411B03200229EE
:102A2000F5D9EBE03168049A914331603168114087
:102A3000089108990599890432688A433260002810
:102A400000D19CE0FFF72AFB05463068204200D009
:102A500046E6FFF723FB401B6428F6D9032009B0A4
:102A6000F0BD3068C00600D487E06748B7E08A024E
:102A7000120F644B9A5C0902890F491CF368049C8D
:102A8000234200D0A8E03068C00600D5A3E05F482C
:102A9000A2E0012081433160FFF700FB054630686A
:102AA000400700D420E6FFF7F9FA411B0320022972
:102AB000F5D9A3E001218843B060480359490A6869
:102AC00082430A60FFF7EAFA0546B068800700D43F
:102AD0001BE6FFF7E3FA411B03200229F5D98DE03D
:102AE0001F200002716881430798006900020843B3
:102AF0007060F9E5306DA0433065039A9002316D46
:102B0000814331655402464FFFF7C8FA0546306DE0
:102B100020421CD0FFF7C2FA411B0320B942F6D96C
:102B20006CE09002316D01433165306D20433065BA
:102B300054023B4FFFF7B2FA0546306D204206D1F2
:102B4000FFF7ACFA411B0320B942F6D956E00298D0
:102B50000028079900D0D4E5B06B019A9043B06388
:102B6000CFE57C063068204200D1EDE5FFF796FA0C
:102B7000411B03200229F5D940E024482FE0FFF74C
:102B80008DFA05463068204200D1A9E5FFF786FAA4
:102B9000411B03206429F5D930E0FD200004F168D1
:102BA0008143079B2C330DCB084310431843F0603F
:102BB0002748401C316801433160FFF76FFA044633
:102BC0003068384200D0BFE5FFF768FA011B0320E8
:102BD0000229F5D912E00C48504301F045F9F1689B
:102BE0000906090F0A4A515CC8400A4908600A48A8
:102BF0000068FFF775FA002800D175E509B0F0BD4F
:102C000000127A00F043000800093D000024F4009F
:102C1000D84300082C000020240000200070004051
:102C20008813000020000140401E010E01D0012049
:102C300070470749074A5060074803680B40032163
:102C400089075918016000209060072111607047C2
:102C5000FFFFFF0010E000E020ED00E0B0B500282D
:102C60002FD00446C06F002805D1782000212154C0
:102C7000204600F029F82420E0672068016801253B
:102C8000A9430160204600F0F9F9012817D0606AD5
:102C9000002802D0204600F025F90920C002216852
:102CA0004A6882434A6088682A229043886008689C
:102CB000012202430A60204600F07EF905462846BC
:102CC000B0BD0120B0BD000080B586B000681149DC
:102CD000884201D006B080BD012041040E4AD3686D
:102CE0000B43D360116801431160116801400091EA
:102CF00004200590032004900020039002200290FD
:102D00000C20019005200007009901A9FFF7F6F8B3
:102D100006B080BD004400402C100240F0B585B0E4
:102D20000546C06F202811D1012000290CD016467D
:102D3000002A09D001200703AA68BA4209D1CA07AC
:102D400007D02A69002A04D105B0F0BD022005B0E1
:102D5000F0BD019103932C46503400200290606333
:102D60002120E867FFF79AF9049066802680A8681A
:102D7000B84202D12869002801D0019F02E0002753
:102D80000198029003990CE0029A108818490840B3
:102D900029688862921C0292374603996088401E17
:102DA00060806088002810D000918021002628468D
:102DB0003246049B00F07CFA002814D1002FE3D0A7
:102DC0003878296888627F1CE7E70091402100225B
:102DD0002846049B00F06CFA2021E9670028B3D054
:102DE000032005B0F0BD2020E867032005B0F0BD4A
:102DF000FF010000FEE780B5012100F02AFB80BD45
:102E0000B0B504460698A0820798A075059D256177
:102E1000049DA5810EC40C3C002801D0382108E097
:102E20003321204600F015FB3221204600F011FB33
:102E30002821204600F00DFB0121204600F009FB6F
:102E40000C21204600F005FB0621204600F001FB86
:102E5000B0BD000080B5044B595C51188039C9B22F
:102E600000F0F7FA80BDC046F9430008F0B583B022
:102E70000A4604466D460BA12846FDF72BFA287832
:102E800000280DD000273E466D46E95D204600F043
:102E90008DFB761CF7B22846FDF79CFAB842F3D8B2
:102EA00003B0F0BD25640000F0B581B00546087898
:102EB00000280DD00C4600273E46E15D284600F074
:102EC00075FB761CF7B22046FDF784FAB842F4D8B9
:102ED00001B0F0BDFEE77047704780B5FFF7E2F83C
:102EE00080BD7047B0B5416ACA070CD18A0714D4B7
:102EF0004A071CD40A0724D4CA062CD48A0634D420
:102F00004A063CD44CE00122520403685C689443B6
:102F1000826A22435A608A07EAD5012212040368B2
:102F20005C689443C26A22435A604A07E2D5012290
:102F3000920403685C689443026B22435A600A0758
:102F4000DAD50122D20303685C689443426B2243C2
:102F50005A60CA06D2D50122120303689C689443C2
:102F6000826B22439A608A06CAD501225203036803
:102F70009C689443C26B22439A604A0610D5012292
:102F80001305026854689C43056C2C4354609D42B1
:102F900006D103235B0554689C43436C2343536071
:102FA000090607D50121C904026853688B43806C68
:102FB00018435060B0BD0000F0B583B0044606462B
:102FC00078360027F760FFF769F803462068016844
:102FD00009071FD5284800900120029041050022D2
:102FE00020461D4600F064F9002811D0EFF3108050
:102FF000029981F3108821680A6880239A430A6045
:1030000080F310882020E0670320377003B0F0BD04
:1030100020682B460068400725D5174800900125F9
:10302000A9050022204600F043F900281BD0EFF349
:10303000108085F3108809214901226813688B43A9
:10304000136080F31088EFF3108085F310882168F7
:103050008A68AA438A6080F310882020B060032029
:10306000377003B0F0BD2020E067B0602766676668
:103070003846377003B0F0BDFFFFFF01F0B581B0F7
:10308000044601680868784A0240A068236903433F
:10309000606918431043E269104308600326300357
:1030A0004B688343E06818434860A5696F4B9942B9
:1030B00002D0206A284300E028460B252D028F68A5
:1030C000AF4307438F606A48814214DD0027694897
:1030D00081421FD0684881421CD06848814243D158
:1030E0006848C06C8007000F68A52F580125E803C9
:1030F000994213D13DE06248814205D0994233D1D3
:103100006048C06C000A01E05E48C06C0C250540B8
:103110005D4847590125E80399422AD0824211D1DE
:10312000082F00D999E0C0467F443F797F00BF4413
:10313000043D47944D9494947600FFF759FA002883
:1031400048D06CE0082F00D987E0C0467F443F7923
:103150007F00BF4404304182478282827500FFF7BE
:1031600047FA00286CD141E010270125E803994275
:10317000D4D1082F71D8C0467F443F797F00BF4427
:10318000046C096C0F6C6C6C3800FFF731FA002886
:103190002FD109E03B480068C00629D5404828E007
:1031A000FFF740FA002824D1002556E0FFF72AFA5D
:1031B000002834D10EE0FFF725FA002840D115E0B1
:1031C00030480068C00629D5354828E0FFF72AFABC
:1031D000002824D1002540E02A480068C0062ED5EA
:1031E0002F482DE0FFF71EFA002829D1002534E0F2
:1031F0002A4862685643B0422FD3110388422CD824
:10320000010E56080002002380195941FCF7DAFF2D
:1032100025494118254A91421FD21BE01F48400012
:1032200061684A08101800F01FFE0246103A1D4956
:103230008A4212D201400007400F08430AE01748B3
:1032400061684A08101800F00FFE01461039154A4F
:10325000914202D22168C86000250020A066E06685
:10326000284601B0F0BDC046F369FFEF00480040BA
:10327000FF4B0040004C004000500040003801402F
:10328000004400400010024000440008010000001B
:103290000400000002000000080000000024F40008
:1032A00000093D00F0FF000000FDFFFF00FD0F00E2
:1032B000F0B587B015460F460668F1693940C91B5D
:1032C0004A424A410021AA4225D106930C9C002C77
:1032D00024D00B46611C26D1F1693940C91B4A42F2
:1032E0004A41AA4214D1F1693940C91B4A424A41B4
:1032F000AA420DD1F1693940C91B4A424A41AA424A
:1033000006D1F1693940C91B4A424A41AA42E3D079
:10331000184607B0F0BD084607B0F0BDFEF7BEFE88
:10332000032007B0F0BD02930146783103910121DB
:103330000191C9020491059006E0C9693940CA1B90
:1033400051425141A9424BD1FEF7A8FE0699411ABC
:103350000323A142DCD8059801680A685207ECD51E
:10336000CA6912073FD4CA692646049C22423446E1
:10337000E3D01F4604980862EFF31082012181F325
:10338000108809235B010598046825689D43256022
:1033900082F31088EFF3108281F310880598036898
:1033A0009C688C439C60059882F31088026E012A09
:1033B0000BD1EFF3108281F3108801680B681024A1
:1033C000A3430B60059882F310882021039B99602A
:1033D0000022026682661A70D960384607B0F0BDD6
:1033E000029807B0F0BD08250D62EFF31081019837
:1033F00080F3108809225201059B1B681C689443C6
:103400001C6081F31088EFF3108180F31088059A17
:103410001268936883439360059B81F31088196E4B
:1034200001290CD1EFF31081012282F310881A6870
:1034300013681024A3431360059B81F31088202197
:10344000039A91600021196699661170D56007B0E2
:10345000F0BD70B50D460446818980680022FEF7F4
:1034600015FEA07D002842D001222A4003CC098805
:103470000068083CFEF70AFE03CC49884068AA07AA
:10348000D20F083CFEF702FE03CC898880686A07E9
:10349000D20F083CFEF7FAFD03CCC988C0682A07A2
:1034A000D20F083CFEF7F2FD03CC09890069EA0659
:1034B000D20F083CFEF7EAFD03CC49894069AA0611
:1034C000D20F083CFEF7E2FD03CC898980696A06C9
:1034D000D20F083CFEF7DAFD03CCC989C069EA09BE
:1034E000083CFEF7D3FD2646143610344FE003CCDB
:1034F00009880068EA06D20F083CFEF7C7FD03CC36
:1035000049884068AA06D20F083CFEF7BFFD03CCED
:10351000898880686A06D20F083CFEF7B7FD03CCA5
:10352000C988C068EA09083CFEF7B0FDA18A206995
:1035300001263246FEF7AAFD3046FEF7A3FCA18A1B
:1035400020690022FEF7A2FD2E4003CC0988083C2A
:1035500000683246FEF79AFD03CC49884068AA0706
:10356000D20F083CFEF792FD03CC898880686A0779
:10357000D20F083CFEF78AFD03CCC988C0682A0731
:10358000D20F083CFEF782FD2646143610343188EF
:10359000206801252A46FEF779FD2846FEF772FCD1
:1035A000318820680022FEF771FD70BD70B50D46B0
:1035B00004468189806801263246FEF767FDA07DBA
:1035C000002842D02E4003CC098800683246083CCF
:1035D000FEF75CFD03CC49884068AA07D20F083C7F
:1035E000FEF754FD03CC898880686A07D20F083C37
:1035F000FEF74CFD03CCC988C0682A07D20F083CEF
:10360000FEF744FD03CC09890069EA06D20F083CA5
:10361000FEF73CFD03CC49894069AA06D20F083C5D
:10362000FEF734FD03CC898980696A06D20F083C15
:10363000FEF72CFD03CCC989C069EA09083CFEF7F6
:1036400025FD2646143610344EE003CC0988006868
:10365000EA06D20F083CFEF719FD03CC4988406802
:10366000AA06D20F083CFEF711FD03CC89888068BA
:103670006A06D20F083CFEF709FD03CCC988C06872
:10368000EA09083CFEF702FDA18A20693246FEF7EE
:10369000FDFC3046FEF7F6FBA18A20690022FEF70A
:1036A000F5FC2E4003CC0988083C00683246FEF742
:1036B000EDFC03CC49884068AA07D20F083CFEF70E
:1036C000E5FC03CC898880686A07D20F083CFEF7C6
:1036D000DDFC03CCC988C0682A07D20F083CFEF77E
:1036E000D5FC2646143610343188206801252A4638
:1036F000FEF7CCFC2846FEF7C5FB31882068002287
:10370000FEF7C4FC70BD0000AAB0FEF7D5FCB148BE
:10371000002606601CAF381D3421FCF79BFE0DA867
:10372000001D2421FCF796FE03200B90C002AA493D
:103730000A68824301252395E8021018086026963E
:103740000524600325900C96249610261C96384676
:10375000FEF7A2FF002803D0EFF3108072B6FEE759
:1037600009960C9F18970F20179019971A971B9777
:1037700017A83946FEF728FE002803D0EFF3108083
:1037800072B6FEE7119702260D960DA8FEF7FEFC15
:10379000002803D0EFF3108072B6FEE720978F4821
:1037A0000168069529430160016829400D910D9932
:1037B00001680422089211430160016811400D91D3
:1037C0000D99016831430160006830400D900D98FB
:1037D00020070A900796C02529463A46FEF756FC70
:1037E0007F48802631463A46FEF750FC7D487021DE
:1037F00005913A46FEF74AFC1F971E97069C1D94BA
:103800001C951CAD0A982946FEF778FB1F971E975A
:103810001D941C9672482946FEF770FB1F971E9751
:103820001D9405981C906F482946FEF767FB1E946F
:10383000112000041D904B20860030462C381C902F
:1038400068482946FEF75AFB0725284639463A4676
:10385000FEF780FC2846089DFEF770FC2C2162488C
:10386000475462490B9A92072302038433469533E7
:1038700043628762076344638763C76386C00760E8
:103880000C3801461031B0C1C7611D971C97FEF777
:1038900031F9002803D0EFF3108072B6FEE70A96E4
:1038A0001C9420031D90EB481CA9FEF799F80028F2
:1038B00003D0EFF3108072B6FEE7E7481C90E548AE
:1038C0001CA9FEF78DF8002803D0EFF3108072B624
:1038D000FEE7E2481C90DF481CA9FEF781F80028AB
:1038E00003D0EFF3108072B6FEE7DD480C21DD4A0D
:1038F00007624762E1235B028CC00760476081601A
:10390000C76007610C38FFF7A9F9002803D0EFF36F
:10391000108072B6FEE720200090CD4B01930998ED
:1039200002900397D04A1146103108321CAE30463F
:10393000FFF766FAC54C204650300B900ECE0EC0F5
:103940000ECE0EC0F8430990C24F0A9E0AE0FCF763
:10395000C1FC2846FCF73EFD82B2C1482946099BBE
:10396000FFF7DCF93846FEF761FA38463146FEF7D4
:10397000C9F93846FEF7BAF8FDF7FCF8A0603846FA
:10398000FEF754FA38463146FEF7BCF93846FEF7E2
:10399000ADF8FDF7EFF8E0613846FEF747FA384634
:1039A0003146FEF7AFF93846FEF7A0F8FDF7E2F82A
:1039B000206321680729D5D84900C0467944898801
:1039C00049008F447000CC00D2002E011500340154
:1039D0003A013D0190000020007000402C10024090
:1039E0000008005000040050F800002000240140AE
:1039F000FCF794FF9D4A9E4BFCF76CFEFCF72CFEF7
:103A00000646606398484068FDF7ACF8054696485E
:103A10000068FDF7A7F801462846FCF7A9FF7F21BB
:103A2000C90500F061FB314600F0A4FBA063002152
:103A30000B9C20460A46FFF70DFA20468D49FFF7FA
:103A400033FAF848856B2846FDF742F80646F548F4
:103A5000C6633046FDF786F80146284600F0E2FBD3
:103A6000F84900F087FBFDF733F8EE49086420467B
:103A700031460A9EFFF7FAF92046F349FFF714FA98
:103A8000E848016C2046FFF7F1F92046E54CEF4984
:103A9000FFF70AFAA06BFCF741FF02460B46764D92
:103AA0002846764953E7A068FCF738FFDE4ADF4B2B
:103AB000FCF710FEFCF7D0FD0646E060DC484068ED
:103AC000FDF750F80546DA480068FDF74BF8014667
:103AD0002846FCF74DFF7F21C90500F005FB314664
:103AE00000F048FB206100210B9C20460A46FFF7AE
:103AF000B1F920466549FFF7D7F9CA480569284654
:103B0000FCF7E6FF0646C74846613046FDF72AF84F
:103B10000146284600F086FBCA4900F02BFBFCF763
:103B2000D7FFC0498861204631460A9EFFF79EF9BB
:103B30002046C549FFF7B8F9BA4881692046FFF722
:103B400095F92046B74CC149FFF7AEF92069FCF75B
:103B5000E5FE02460B464E4D28464E49F7E60B98C9
:103B6000FFF749F907982060FCE6E069FCF7D6FE0C
:103B7000AD4AAE4BFCF7AEFDFCF76EFD064620628B
:103B8000AB484068FCF7EEFF0546A9480068FCF723
:103B9000E9FF01462846FCF7EBFE7F21C90500F04E
:103BA000A3FA314600F0E6FA606200210B9C204641
:103BB0000A46FFF74FF920463149FFF775F9994852
:103BC000456A2846FCF784FF0646964886623046DA
:103BD000FCF7C8FF0146284600F024FB994900F095
:103BE000C9FAFCF775FF8F49C862204631460A9E24
:103BF000FFF73CF920469449FFF756F98948C16A16
:103C00002046FFF733F92046864C9049FFF74CF9E0
:103C1000606AFCF783FE02460B461A4D28461A4995
:103C200095E60B98FFF7E7F8089820609AE60B985E
:103C3000FFF7E1F80620206094E600F02DF891E609
:103C40000B98FFF7D8F80C9820608BE690000020C6
:103C500000040050F80000200200000410000010D2
:103C600054010020004400400000002066666666A3
:103C700066664A3F59440008A40200203644000802
:103C80005144000840020020234400084944000831
:103C9000DC01002010440008F0B583B0604C2046E1
:103CA000FEF7C4F84B20850020462946FEF72AF887
:103CB0002046FDF71BFFFCF75DFF5A4EB060204623
:103CC000FEF7B4F820462946FEF71CF82046FDF71B
:103CD0000DFFFCF74FFFF0612046FEF7A7F82046E6
:103CE0002946FEF70FF82046FDF700FFFCF742FFDC
:103CF00005463063B068FCF711FE4B4C4B4F224633
:103D00003B46FCF7E7FCFCF7A7FC0290F060284676
:103D1000FCF704FE22463B46FCF7DCFCFCF79CFC6F
:103D200005467063F069FCF7F9FD22463B46FCF757
:103D3000D1FCFCF791FC019030623D4C6068FCF7CF
:103D400011FF07462068FCF70DFF01463846FCF7D7
:103D50000FFE7F21C90500F0C7F90746029900F060
:103D600009FA044630613846294600F003FA054650
:103D7000B0633846019900F0FDF9014670622046B3
:103D800000F0B2F90146284600F0AEF92949FCF7E7
:103D9000EFFD3446706435465035002102912846C7
:103DA0000A46FFF757F824A12846FFF77DF8776CFD
:103DB0003846FCF78DFE0646A064FCF7D3FE0146AC
:103DC000384600F02FFA1F4900F0D4F9FCF780FEC6
:103DD000E06428463146FFF749F81B492846FFF7BB
:103DE00063F8E16C2846FFF741F818492846FFF7C9
:103DF0005BF8606CFCF792FD02460B46144D15A172
:103E00002846FCF767FA2846FCF7E4FA0299CB4308
:103E100082B214482946FEF781FF03B0F0BDC046C8
:103E2000F8000020900000206666666666664A3FDD
:103E3000000000200000404056696475726B697391
:103E40003A2000000000204161440008634400085B
:103E50000803002056696475726B69733A20256601
:103E60000D0A00005401002043088B421AD300229F
:103E700003098B4279D3030A8B425ED3030B8B4237
:103E800042D3030C8B4227D30902FF2212BA030C40
:103E90008B4202D31212090203D0030B8B4233D39D
:103EA0001AE0D3E0411A8041401C704703460B439F
:103EB00071D443088B42F5D3002203098B4254D3BB
:103EC000030A8B4239D3030B8B421DD3030C8B4265
:103ED00002D394466EE0090AC30B8B4201D3CB0395
:103EE000C01A5241830B8B4201D38B03C01A52413B
:103EF000430B8B4201D34B03C01A5241030B8B423D
:103F000001D30B03C01A5241C30A8B4201D3CB0227
:103F1000C01A5241830A8B4201D38B02C01A52410C
:103F2000430A8B4201D34B02C01A5241030A8B420F
:103F300001D30B02C01A5241CDD2C3098B4201D327
:103F4000CB01C01A524183098B4201D38B01C01AA5
:103F5000524143098B4201D34B01C01A524103091C
:103F60008B4201D30B01C01A5241C3088B4201D3CB
:103F7000CB00C01A524183088B4201D38B00C01A78
:103F8000524143088B4201D34B00C01A5241411A9F
:103F9000524110007047CA0F00D04942031000D3AD
:103FA0004042534000229C4603098B422DD3030A12
:103FB0008B4212D38901FC2212BA030A8B420CD322
:103FC000890192118B4208D3890192118B4204D34B
:103FD000890137D0921100E08909C3098B4201D3CE
:103FE000CB01C01A524183098B4201D38B01C01A05
:103FF000524143098B4201D34B01C01A524103097C
:104000008B4201D30B01C01A5241C3088B4201D32A
:10401000CB00C01A524183088B4201D38B00C01AD7
:104020005241D9D243088B4201D34B00C01A5241AE
:10403000411A00D201465241104663465B1000D33C
:104040004042704763465B1000D3404201B50021F7
:10405000004201D0C9430846C046C04602BDF8B57B
:10406000040C8BB2264682B25E43104658430D0CB8
:10407000370C360400218019164679416E43370CFF
:1040800036048019264679416E438919F8BD00002F
:104090004900CA020243100000D004204A0D01D09A
:1040A00001221043044A490D914201D102210843E3
:1040B000012800D105207047FF07000010B5002936
:1040C0000AD00878002807D005487844FDF7C8FBD7
:1040D000002801D0002010BD0248784410BD000027
:1040E000BE030000B603000070B50125ED07040013
:1040F0004C4020D4441A01D2001B0919C60D4B00B4
:10410000F2B2FF2A29D01B0E2CD000020C02284349
:104110002C43D31ADC40051910D2280A02D3401CC4
:104120006D0611D0761EF6058019FF2A00DA70BDE3
:10413000C00DC00570BD694000F07AF8012005434C
:10414000C541521C761CE8E764089C40C9016140E7
:104150008900E7D10124A043E4E71B0E440200D00C
:10416000034870BD002AFCD1C00FC00770BD00BF5E
:104170000000C07F70B5420064414B005C41120EEC
:1041800039D01B0E38D0FF2A3CD0FF2B3AD0D218A2
:104190007F3A40024902400A490A4518ED010600EB
:1041A0004E43000A090A48430104731A4019190CC6
:1041B0004318990F04D05B08012149075B1A521C70
:1041C000D80904D3401CF50301D19D0607D0FF2A6E
:1041D00008D2D50506D0E4072043401970BD01255B
:1041E000A843F4E7002A01DCE00770BD2402FF20A9
:1041F0002043C00570BD1B0EFF2A03D0FF2B01D04A
:10420000E00770BDFF2636064500B54206D84D00D2
:10421000B54203D8D218FF2A00D0E7E7004870BDA6
:104220000000C07F70B50125ED0704004C4022D48A
:10423000441A02D26C40001B0919C60D4B00F2B2A1
:10424000FF2A4BD01B0E50D000020C02A8432C4377
:10425000D31ADC40051B05D5AD0019D36D08761EB9
:10426000521E37D0F605280A01D2801970BD704160
:104270006D0603D070BD6940FFF73CFF9C4009020A
:104280006140490001D0401E70BD0124A04370BDB3
:104290006D081DD001202B0C01D12D0410302B0EE8
:1042A00001D12D0208302B0F01D12D01001DAB0FC4
:1042B00001D1AD00801CEB0F01D16D00401C361AFE
:1042C000121A6D00680AF5054019012A02DB70BD5B
:1042D000002070BDC036300AC00770BD1B0E4402FE
:1042E00001D1FF2B00D1024870BD002AF0D070BD73
:1042F0000000C07F03B402487844844603BC604792
:10430000CDCAFFFF8182838485868788898B8C8DC7
:104310008E8F919293959697999A9C9D9FA0A2A318
:10432000A5A7A8AAACAEB0B2B3B5B7B9BCBEC0C25F
:10433000C5C7C9CCCED1D4D7D9DCDFE2E6E9ECF0F1
:10434000F3F7FAFE02400000000000A000000000A9
:1043500005400000000000C8000000000C40000004
:104360000000409C00000000194000000020BCBE7E
:104370000000000034400000BFC91B8E0000000494
:10438000B5400000504BCFD06607E2CF01000000DF
:104390006C4100003E8251AADFEEA734010000000C
:1043A000D9420000DCB5A0E23A301F97FFFFFFFFC3
:1043B000B4450000FD25A0C8E9A3C14FFFFFFFFFE2
:1043C000FF3F00000000008000000000FF3F0000F1
:1043D000000000800000000000000000000000005D
:1043E000010203040607080900000000010203049B
:1043F000030406080C101820300040105000000084
:10440000000000000400000002000000080000009E
:104410004974616D7061206E722E20313A202566DC
:104420000D0A004974616D7061206E722E20323A5F
:104430002025660D0A004974616D7061206E722E30
:1044400020333A2025660D0A004E722E20313A2084
:10445000004E722E20323A20004E722E20333A2027
:10446000002E005600000000A844000800000020B4
:104470003000000004010008D8440008300000208B
:1044800040090000200100081C000000430000005B
:10449000F8FFFFFF0C0000000E0000000F000000FE
:1044A0002E000000000000004C1D000030750000D0
:1044B00080004000800040000008005000040050D0
:1044C0000000005000000050010000000400000047
:0844D0000100000000002000C3
:04000005080000C12E
:00000001FF
